:020000040800F2
:1000000000500020912C0008A1040008A30400085F
:10001000A5040008A7040008A904000800000000C7
:10002000000000000000000000000000E11F0008C8
:10003000AB0400080000000081200008C520000873
:10004000D92C0008D92C0008D92C0008D92C00087C
:10005000D92C0008D92C0008D92C0008D92C00086C
:10006000D92C0008AD040008D92C0008D92C0008B0
:10007000D92C0008D92C0008D92C0008D92C00084C
:10008000D92C0008D92C0008D92C0008D92C00083C
:10009000D92C0008D92C0008D92C0008D92C00082C
:1000A000D92C0008B9040008D92C0008D92C000864
:1000B000D92C0008D92C0008D92C0008D92C00080C
:1000C000D92C0008D92C0008D92C0008D92C0008FC
:1000D000D92C0008D92C0008D92C0008D92C0008EC
:1000E000D92C0008D92C0008D92C000800000000E9
:1000F0000000000000000000000000000000000000
:0C01000000000000000000005FF808F1A3
:1001100010B5054C237833B9044B13B10448AFF341
:1001200000800123237010BD60000020000000004B
:100130005836000808B5034B1BB103490348AFF319
:10014000008008BD00000000640000205836000850
:1001500070B588B000240494059406940794254B48
:100160009A6942F010029A619A6902F010020092B4
:10017000009A9A6942F020029A619A6902F020027C
:100180000192019A9A6942F004029A619A6902F016
:1001900004020292029A9A6942F008029A619B69EB
:1001A00003F008030393039B134E22464FF40051C0
:1001B000304600F09BFF4FF4005304930123059356
:1001C00006940225079504A9304600F081FE082315
:1001D00004930A4B0593069504A9094800F078FE9C
:1001E00022460521092000F0E5FF092000F0F2FF7A
:1001F00008B070BD00100240001001400000311036
:10020000000C014008B5012001F08AFDFBE7F8B5BC
:1002100005460E4681B10127002401E00134E4B215
:10022000315D61B1284600F06CFA0F2CF6D1402107
:10023000284600F07FFAF1E74FF0FF37ECE7384649
:10024000F8BD000000B585B0002300930193029330
:10025000039311E0204B1A682049684602F03EFDE6
:100260001F4C4821204600F065FA69462046FFF7FA
:10027000CEFF1C4B00221A70642001F051FD194B77
:100280001B78DBB2012BF7D1174B1B78002BE1D089
:10029000134C204600F03FFA204600F041FA134B81
:1002A000EC460FCBACE807008CF8003069462046DE
:1002B000FFF7ADFF4021204600F03CFA0C4A6B46A8
:1002C00007CA03C31A7069462046FFF7A0FF064B12
:1002D00000221A70BEE700BF80000020B43600087C
:1002E000840000207C00002000000020C8360008A8
:1002F000A836000808B54FF40051054800F0FCFE90
:10030000044A136801331360034B01221A7008BDBD
:1003100000100140800000207C00002008B5026829
:10032000034B9A4200D008BD00F05CFAFBE700BF27
:10033000002C014072B6FEE708B50B480B4B03607A
:100340000B4B4360002383607E22C2604FF48042E7
:10035000026143618361C361036202F05DF900B928
:1003600008BDFFF7E7FF00BFEC020020005400408B
:10037000A086010000B591B02822002106A802F055
:10038000CDFC00230193029303930493059302236E
:10039000069301220A9210220B920D934FF46013E0
:1003A0000F9306A800F05AFA80B90F230193022197
:1003B0000291002303934FF480620492059301A8F5
:1003C00000F08CFC20B911B05DF804FBFFF7B2FF20
:1003D000FFF7B0FF10B58EB000F0F2F9FFF7CAFFDB
:1003E000FFF7B6FEFFF7A8FF01224FF400511E48A9
:1003F00000F07CFE1D4C7E221D49204600F017F9BE
:10040000204600F09EF9204600F085F91949204663
:10041000FFF7FDFE4FF4FA7000F0F6F9164C0DF1FF
:100420001C0CA646BEE80F00ACE80F009EE80700D3
:100430008CE80700002107A801F03FFC0F4B186073
:10044000EE4604F11C0CBCE80F00AEE80F009CE87F
:1004500007008EE807000021684601F02EFC084BDB
:10046000186001F025FCFEE7001001408400002028
:10047000EC020020B836000870360008E8020020C0
:10048000E402002070470000034B0360034B0B6045
:1004900080231360704700BF400500204003002008
:1004A000FEE7FEE7FEE7FEE7FEE7704708B5082037
:1004B00000F02CFE08BD000008B5024800F0D2FE96
:1004C00008BD00BF9405002000B583B0114B9A69A8
:1004D00042F001029A619A6902F001020092009AC8
:1004E000DA6942F08052DA61DB6903F080530193EC
:1004F000019B00220F216FF0010000F05BFE064A15
:10050000536823F0E06343F00073536003B05DF879
:1005100004FB00BF001002400000014010B586B08F
:10052000002302930393049305930268114B9A42AC
:1005300001D006B010BD104CA36943F00803A361BD
:10054000A36903F008030093009BC02302931223C6
:1005500003930323059302A9084800F0B9FCE3695B
:1005600043F40013E361E36903F400130193019B77
:10057000DFE700BF0054004000100240000C0140C3
:1005800030B589B004461E4B9A6942F400629A6104
:100590009B6903F400630193019B02A903A800F087
:1005A00079FC00F067FC174AA2FB00239B0C013B7F
:1005B0001548164A026040F2E732C26043600023E9
:1005C00003618360836100F045FF054610B1284652
:1005D00009B030BD0C4800F00DFE05460028F6D1EC
:1005E000192000F0F7FD0F2C01D90125EFE70022BB
:1005F0002146192000F0DEFD054B1C60E7E700BF37
:100600000010024083DE1B4394050020002C0140B3
:100610000400002000B583B013460A2200920A4667
:100620000179006802F0D6F803B05DF804FB00B56C
:1006300083B000238DF8073049B1016002710122B7
:100640000DF10701FFF7E6FF03B05DF804FBFF20A3
:10065000FAE708B500F0D8F8002008BD70B584B0FE
:10066000064602F0010302F0080412F0020F42D025
:1006700002222244F07A00F00800034343F004030E
:1006800021F00F0018438DF8080000F0F9008DF8F4
:10069000090043EA0111C9B28DF80A1001F0F9010D
:1006A0008DF80B105CB102F10E036B4413F8081CBB
:1006B00002F10F036B4461F07F0103F8081C02A9EB
:1006C0003046FFF7A7FF0546BCB100240A2300937C
:1006D000012302AA3179306802F038F90543EDB2FE
:1006E0000134E4B27E2C03D89DF90830002BEDDBF9
:1006F000284604B070BD0422BBE70120FFF7A9FF24
:10070000F6E708B50122FFF7A9FF08BD08B50022EA
:10071000FFF7A4FF08BD08B50121FFF7F7FF08BDEB
:1007200008B50221FFF7F2FF08BD08B50222FFF766
:1007300095FF08BD08B5002241F08001FFF78EFF4C
:1007400008BD70B50546302101720823C372042626
:1007500046711023C371FFF7E8FF04463046FFF7E8
:1007600078FF297A2846FFF7E0FF0443E4B2297AAC
:100770002846FFF7DAFF0443E4B220212972284615
:10078000FFF7D3FF0443E4B2282129722846FFF77C
:10079000BDFF0443E4B20F21A9712846FFF7B6FF5D
:1007A0000443E4B269792846FFF7B0FF0443E4B29A
:1007B0002846FFF7B0FF0520FFF74BFF204670BD2E
:1007C00008B5074A136843F010031360032000F0D4
:1007D000DFFC0F20FFF7D4FEFFF776FE002008BDF8
:1007E00000200240034A1168034B1B780B4413603E
:1007F000704700BFDC05002001000020014B186895
:10080000704700BFDC05002038B50446FFF7F6FF4F
:100810000546B4F1FF3F02D0044B1B781C44FFF7A0
:10082000EDFF401BA042FAD338BD00BF01000020FD
:1008300082B0084B1B68084AA2FB03235B0A00FB3B
:1008400003F3019300BF019B5A1E0192002BF9D1C3
:1008500002B0704708000020D34D6210002800F05D
:10086000F18170B582B00446036813F0010F2CD0FB
:10087000994B5B6803F00C03042B1DD0964B5B680F
:1008800003F00C03082B12D06368B3F5803F41D00E
:10089000002B55D103F1804303F504331A6822F489
:1008A00080321A601A6822F480221A6037E08A4B7C
:1008B0005B6813F4803FE7D0874B1B6813F4003F5D
:1008C00003D06368002B00F0BF81236813F0020F90
:1008D00075D0814B5B6813F00C0F5FD07E4B5B686B
:1008E00003F00C03082B54D02369002B00F08A80FE
:1008F0007A4B01221A60FFF781FF0546764B1B6891
:1009000013F0020F75D1FFF779FF401B0228F5D9CC
:1009100003209EE1704A136843F4803313606368D8
:1009200043B3FFF76BFF05466B4B1B6813F4003FA7
:10093000CBD1FFF763FF401B6428F5D9032088E182
:10094000B3F5A02F09D0644B1A6822F480321A60E4
:100950001A6822F480221A60E1E703F18043A3F5CC
:100960003C331A6842F480221A601A6842F48032DA
:100970001A60D4E7FFF742FF0546574B1B6813F494
:10098000003FA2D0FFF73AFF401B6428F5D90320AF
:100990005FE1514B5B6813F4803FA5D14E4B1B6860
:1009A00013F0020F03D02369012B40F04F814A4A14
:1009B000136823F0F803616943EAC10313602368F5
:1009C00013F0080F33D0A369002B5CD0434B0122F6
:1009D000C3F88024FFF712FF05463F4B5B6A13F014
:1009E000020F21D1FFF70AFF401B0228F5D903208F
:1009F0002FE1394A136823F0F803616943EAC10320
:100A00001360DCE7354B00221A60FFF7F7FE05465E
:100A1000314B1B6813F0020FD1D0FFF7EFFE401BE4
:100A20000228F5D9032014E10120FFF701FF236814
:100A300013F0040F00F09680274BDB6913F0805F02
:100A400034D1254BDA6942F08052DA61DB6903F078
:100A500080530193019B0125214B1B6813F4807F78
:100A600026D0E368012B3DD0002B53D103F1804306
:100A700003F504331A6A22F001021A621A6A22F09C
:100A800004021A6233E0154B0022C3F88024FFF7FA
:100A9000B5FE0546104B5B6A13F0020FC7D0FFF797
:100AA000ADFE401B0228F5D90320D2E00025D3E794
:100AB0000B4A136843F480731360FFF79FFE0646EA
:100AC000074B1B6813F4807FCBD1FFF797FE801B89
:100AD0006428F5D90320BCE0001002400000424227
:100AE000007000405F4A136A43F001031362E36839
:100AF00033B3FFF783FE06465A4B1B6A13F0020F0F
:100B00002FD1FFF77BFE801B41F288339842F3D947
:100B100003209EE0052B09D0524B1A6A22F00102F5
:100B20001A621A6A22F004021A62E0E74D4B1A6A4E
:100B300042F004021A621A6A42F001021A62D6E70F
:100B4000FFF75CFE0646474B1B6A13F0020F08D006
:100B5000FFF754FE801B41F288339842F3D90320FB
:100B600077E0E5B9E369002B72D03E4A526802F0A3
:100B70000C02082A56D0022B17D03B4B00221A66D3
:100B8000FFF73CFE0446374B1B6813F0007F47D04D
:100B9000FFF734FE001B0228F5D9032059E0314A43
:100BA000D36923F08053D361DCE72F4B00221A6610
:100BB000FFF724FE05462B4B1B6813F0007F06D081
:100BC000FFF71CFE401B0228F5D9032041E0236AF1
:100BD000B3F5803F1AD023494B6823F47413226A7B
:100BE000606A024313434B601F4B01221A66FFF7F2
:100BF00005FE04461B4B1B6813F0007F0ED1FFF768
:100C0000FDFD001B0228F5D9032022E0154A536898
:100C100023F40033A1680B435360DCE7002018E0A5
:100C2000002016E0012B16D00E4B5B6803F48031D8
:100C3000226A914211D103F47013626A93420ED179
:100C4000002006E001207047012002E0012000E0C2
:100C5000002002B070BD0120FBE70120F9E7012070
:100C6000F7E700BF001002400000424286B0174B79
:100C70000FCB0DF1180C0CE90F0040F20123ADF879
:100C80000430134B5B6803F00C02082A02D01148B1
:100C900006B07047C3F3834218326A4412F8100C4E
:100CA00013F4803F0DD00A4B5B68C3F34043183305
:100CB0006B4413F8143C074A02FB00F0B0FBF3F05E
:100CC000E6E7054B03FB00F0E2E700BFEC36000867
:100CD0000010024000127A0000093D00002800F0D8
:100CE000A08070B50D460446524B1B6803F0070305
:100CF0008B420BD24F4A136823F007030B43136058
:100D0000136803F007038B4240F08D80236813F0D3
:100D1000020F17D013F0040F04D0474A536843F46E
:100D2000E0635360236813F0080F04D0424A53680D
:100D300043F460535360404A536823F0F003A168C2
:100D40000B435360236813F0010F31D06368012B0C
:100D500020D0022B25D0384A126812F0020F64D03E
:100D600035494A6822F0030213434B60FFF746FD02
:100D70000646314B5B6803F00C036268B3EB820FED
:100D800016D0FFF73BFD801B41F288339842F0D923
:100D9000032045E0284A126812F4003FE0D1012008
:100DA0003EE0254A126812F0007FD9D1012037E0D9
:100DB000204B1B6803F00703AB420AD91D4A136896
:100DC00023F007032B431360136803F00703AB42C0
:100DD0002DD1236813F0040F06D0174A536823F46B
:100DE000E063E1680B435360236813F0080F07D0FA
:100DF000114A536823F46053216943EAC1035360E5
:100E0000FFF734FF0C4B5B68C3F303130B4AD35C4F
:100E1000D8400B4B18600B4B1868FFF7B1FB002054
:100E200070BD012070470120FAE70120F8E701209A
:100E3000F6E700BF0020024000100240083700081B
:100E40000800002004000020014B1868704700BF14
:100E50000800002008B5FFF7F7FF044B5B68C3F3F9
:100E60000223034AD35CD84008BD00BF00100240F3
:100E70000037000808B5FFF7E7FF044B5B68C3F3D2
:100E8000C223034AD35CD84008BD00BF0010024013
:100E9000003700080F2303600B4B5A6802F003026F
:100EA00042605A6802F0F00282605A6802F4E0621E
:100EB000C2605B68DB0803F4E0630361034B1B68FB
:100EC00003F007030B60704700100240002002404F
:100ED00070B582B00024A446A2E07E4DAB4210D093
:100EE00007D97D4DAB420CD005F58035AB4208D01B
:100EF00013E0A5F58015AB4203D005F57025AB4294
:100F000007D18B68002B55D0012B4ED042610824AD
:100F100003E0A5F58015AB42F3D0BEF1FF0F4BD82F
:100F200006464FEA8C0233680F25954023EA0503F5
:100F300004FA02F2134333604B6813F0805F6DD004
:100F4000664B9A6942F001029A619B6903F00103C2
:100F50000193019B4FEA9C02951C614B53F825605D
:100F60000CF00305AD000F23AB4026EA03065D4BF2
:100F7000984228D003F58063984200F08D8003F5F5
:100F80008063984200F08A8003F58063984218D00D
:100F9000042319E0CC68C0E7CC680434BDE7CC6812
:100FA0000834BAE7CC680C34B7E702610824B4E728
:100FB0000024B2E70424B0E7061DACF10802920059
:100FC000B1E7032300E00023AB4033430232444D3A
:100FD00045F822304B6813F4803F61D0424A1368D1
:100FE00043EA0E0313604B6813F4003F5ED03E4AA1
:100FF000536843EA0E0353604B6813F4801F5BD0C1
:10100000394A936843EA0E0393604B6813F4001F58
:1010100058D0354AD36843EA0E03D3600CF1010C73
:101020000B6833FA0CF253D0012202FA0CF203EAF5
:10103000020E32EA0303F1D14B68122B3FF64DAF9B
:10104000122B3FF66AAF01A555F823F0030F0008F5
:10105000950F00089F0F0008B10F00081B0F000834
:101060001B0F00081B0F00081B0F00081B0F0008B8
:101070001B0F00081B0F00081B0F00081B0F0008A8
:101080001B0F00081B0F00081B0F00081B0F000898
:10109000990F0008A50F0008012395E7022393E7A5
:1010A000114A136823EA0E0313609CE70E4A536843
:1010B00023EA0E0353609FE70B4A936823EA0E036B
:1010C0009360A2E7084AD36823EA0E03D360A5E73A
:1010D00002B070BD0000221000003110001002406C
:1010E0000000014000080140000401400AB1016114
:1010F0007047090401617047C36801EA030221EAED
:10110000030141EA024101617047000008B5054B47
:101110005B69034200D108BD024B5861FFF7EAF852
:10112000F9E700BF00040140002808DB0901C9B24B
:1011300000F1604000F5614080F80013704700F056
:101140000F000901C9B2014B1954704714ED00E0BA
:1011500000B500F00700C0F1070CBCF1040F28BF78
:101160004FF0040C031D062B0FD9C31E4FF0FF3E9A
:101170000EFA0CF021EA000199400EFA03FE22EA71
:101180000E0241EA02005DF804FB0023EEE70000D6
:10119000074AD36823F4E0631B041B0C000200F42D
:1011A000E060034343F0BF6343F40033D360704710
:1011B00000ED00E010B50446054BD868C0F30220EE
:1011C000FFF7C6FF01462046FFF7AEFF10BD00BF88
:1011D00000ED00E0002807DB00F01F0240090123BA
:1011E0009340024A42F82030704700BF00E100E01F
:1011F0007047000090F83D30DBB2012B27D102236D
:1012000080F83D300268D36843F00103D36003687F
:10121000114A934210D0B3F1804F0DD0A2F5943211
:10122000934209D002F58062934205D01A6842F0D9
:1012300001021A60002070479A6802F00702062A2D
:1012400007D01A6842F001021A600020704701209E
:1012500070470020704700BF002C01407047704766
:101260007047704710B5044603681A6912F0020F00
:1012700011D0DA6812F0020F0DD06FF002021A617D
:101280000123037703689B6913F0030F70D0FFF706
:10129000E6FF0023237723681A6912F0040F12D0A7
:1012A000DA6812F0040F0ED06FF004021A61022304
:1012B000237723689B6913F4407F5FD02046FFF7B4
:1012C000CEFF0023237723681A6912F0080F12D08B
:1012D000DA6812F0080F0ED06FF008021A610423CA
:1012E00023772368DB6913F0030F4ED02046FFF706
:1012F000B6FF0023237723681A6912F0100F12D06B
:10130000DA6812F0100F0ED06FF010021A61082385
:1013100023772368DB6913F4407F3DD02046FFF735
:101320009EFF0023237723681A6912F0010F03D070
:10133000DA6812F0010F36D123681A6912F0800FB3
:1013400003D0DA6812F0800F34D123681A6912F0E2
:10135000400F03D0DA6812F0400F32D123681A69C7
:1013600012F0200F03D0DA6812F0200F30D110BD38
:10137000FFF774FF2046FFF773FF8AE72046FFF769
:101380006DFF2046FFF76CFF9BE72046FFF766FFE7
:101390002046FFF765FFACE72046FFF75FFF2046DA
:1013A000FFF75EFFBDE76FF001021A612046FEF70E
:1013B000B5FFC1E76FF080021A61204600F077F8B0
:1013C000C3E76FF040021A612046FFF74AFFC5E706
:1013D0006FF020021A61204600F068F8C7E70000AD
:1013E00003681B4A90420AD0B0F1804F07D0A2F5A3
:1013F0009432904203D002F58062904203D123F0F0
:1014000070034A681343124A90420AD0B0F1804FE9
:1014100007D0A2F59432904203D002F58062904248
:1014200003D123F44073CA68134323F080034A694D
:10143000134303608B68C3620B688362044B98425A
:1014400002D00123436170470B690363F9E700BFD2
:10145000002C014040B310B5044690F83D30F3B184
:10146000022384F83D30214651F8040BFFF7B8FF02
:10147000012384F8463084F83E3084F83F3084F805
:10148000403084F8413084F8423084F8433084F8A6
:10149000443084F8453084F83D30002010BD80F899
:1014A0003C30FFF7A5FEDBE701207047704770472F
:1014B000704700F1080343604FF0FF328260C36061
:1014C0000361002303607047002303617047436892
:1014D0004B609A688A6051609960086103680133C3
:1014E0000360704730B40D68B5F1FF3F11D000F1D3
:1014F00008031C465B681A68AA42FAD963684B6005
:1015000099608C606160086103680133036030BCDE
:1015100070470469F2E70369416882688A6041683C
:1015200051605A68824206D0002202611A68013A6C
:101530001A601868704782685A60F5E7084B1B68A4
:101540001B6823B9074B4FF0FF321A607047044BFA
:101550001B68DB68DB685A68024B1A60704700BF83
:1015600050060020E80500202DE9F0470746984680
:10157000089DDDF824900A9C266B02F18042013A16
:1015800006EB820626F007064FF0000CBCF10F0FA9
:1015900009D811F80C2004EB0C0383F8342012B1A5
:1015A0000CF1010CF2E7002384F84330062D00D93A
:1015B0000625E56265644FF0000AC4F848A0201DC6
:1015C000FFF782FF04F11800FFF77EFF2461C5F1E9
:1015D0000705A5616462C4F84CA084F850A0424697
:1015E0003946304600F0EAFC2060B9F1000F01D026
:1015F000C9F80040BDE8F08738B5002407E004EBE7
:10160000840293000E481844FFF753FF0134062C60
:10161000F5D90C4D2846FFF74CFF0B4C2046FFF741
:1016200048FF0A48FFF745FF0948FFF742FF09480E
:10163000FFF73FFF084B1D60084B1C6038BD00BF23
:101640007C06002068060020540600203806002092
:10165000240600200C060020500600204C06002026
:1016600010B5044600F0CEFC214A13680133136024
:10167000204B1B685BB1204B1B686BB91D4B1B6873
:10168000DA6AE36A9A4207D81A4B1C6004E0194BE5
:101690001C601368012B28D0184A136801331360AB
:1016A000E06A01238340164A11680B43136000EB84
:1016B0008000211D134B03EB8000FFF708FF00F0B3
:1016C000C3FC0D4B1B687BB10A4B1B68DA6AE36AEB
:1016D0009A4209D24FF0E0234FF08052C3F8042D14
:1016E000BFF34F8FBFF36F8F10BDFFF785FFD3E7B9
:1016F0000806002008070020FC050020EC0500205B
:10170000000600207C06002010B5044690F85130F9
:1017100063B1012B11D0022B0ED04FF0500383F395
:101720001188BFF36F8FBFF34F8FFEE7006B00F0A0
:10173000DDFB204600F0DAFB10BD00F0D7FBFBE735
:101740000F4B1B68D3B110B500F05CFC0D4BDB6890
:10175000DC68201DFFF7DFFE0B4A1368013B1360B6
:10176000074A1368013B136000F06EFC2046FFF748
:10177000CBFF034B1B68002BE6D110BD704700BFA9
:1017800020060020240600200806002070B504462C
:101790000D461D4B1E681D4B18680430FFF7BBFE3D
:1017A00048B91A4B1B68DB6A01229A4018490B683A
:1017B00023EA02030B60B4F1FF3F0DD03444134B16
:1017C0001B685C60A64210D9124B18680F4B196851
:1017D0000431FFF787FE70BD002DEFD00B4B196869
:1017E00004310D48FFF773FEF5E70C4B1868074B03
:1017F00019680431FFF776FE094B1B68A342EAD94A
:10180000074B1C60E7E700BF040600200807002024
:10181000000600204C0600200C0600205006002088
:10182000E805002008B50BE04FF0E0234FF08052B0
:10183000C3F8042DBFF34F8FBFF36F8FFEF722FE67
:10184000FFF77EFF024B1B68012BEDD8F6E700BFC8
:101850007C06002030B587B00B9C7CB10C9DB5B1E7
:1018600054250495049D542D1AD04FF0500383F352
:101870001188BFF36F8FBFF34F8FFEE74FF0500318
:1018800083F31188BFF36F8FBFF34F8FFEE74FF0E5
:10189000500383F31188BFF36F8FBFF34F8FFEE7C1
:1018A0000C9D2C63022485F851400024039402957A
:1018B00005AC01940A9C0094FFF756FE0C98FFF7C4
:1018C000CFFE059807B030BD2DE9F04385B007463F
:1018D000884614461E46900000F08CFA08B38146F4
:1018E000542000F087FA0546A8B1C0F830900023D4
:1018F00080F85130039302900D9B01930C9B009351
:101900003346224641463846FFF72EFE2846FFF76B
:10191000A7FE012007E0484600F0E8FA4FF0FF304C
:1019200001E04FF0FF3005B0BDE8F08310B588B09E
:1019300000240594069407AA06A905A8FEF7A4FDAD
:10194000059B0293069B019300942346079A0E4938
:101950000E48FFF77FFF0E4B186090B14FF0500319
:1019600083F31188BFF36F8FBFF34F8F094B4FF095
:10197000FF321A60084B01221A60084B1C6000F00D
:10198000CBFB08B010BD00BF1837000825180008B1
:10199000E4050020E8050020FC05002004060020E6
:1019A000024A136801331360704700BFE00500204E
:1019B000F8B53A4B1B68002B64D1394B1D680135D3
:1019C0001D60C5B9374B1B681B6843B14FF050030E
:1019D00083F31188BFF36F8FBFF34F8FFEE7314A58
:1019E0001168314B186810601960304A1368013370
:1019F0001360FFF7A3FD2E4B1B68AB4238D90027BD
:101A00002C4B1B68DB6A03EB83039A002A4B9B5821
:101A1000012B3CD901273AE00127224B1B681B68A8
:101A200043B3204B1B68DB68DC6863689D4226D3A8
:101A3000261D3046FFF76FFDA36A1BB104F11800A5
:101A4000FFF769FDE36A01229A401C4908680243D6
:101A50000A6003EB83039A00314617481044FFF7EE
:101A600036FDE26A134B1B68DB6A9A42D4D2D4E794
:101A70000027D2E70E4B4FF0FF321A60C0E70C4A46
:101A80001360BDE70E4A13680133136000270D4B46
:101A90001B6803B101273846F8BD00BFE0050020F0
:101AA00004060020500600204C060020F00500200F
:101AB000E8050020080700207C0600200006002022
:101AC000F8050020F405002038B5354B1B6843B9F4
:101AD0004FF0500383F31188BFF36F8FBFF34F8F25
:101AE000FEE700F08FFA2E4B1A68013A1A601B6865
:101AF000002B4FD12B4B1B680BB900244BE000246B
:101B0000294B1B681BB3284BDB68DC6804F1180009
:101B1000FFF701FD251D2846FFF7FDFCE06A0123C4
:101B20008340224A11680B43136000EB8000294672
:101B30001F4B03EB8000FFF7CAFCE26A1D4B1B68DA
:101B4000DB6A9A42DCD31C4B01221A60D8E70CB145
:101B5000FFF7F4FC194B1C6884B9174B1C68D4B10F
:101B60004FF0E0234FF08052C3F8042DBFF34F8FA6
:101B7000BFF36F8F01240EE0013C07D0FFF718FF81
:101B80000028F9D00C4B01221A60F5E70B4B00221C
:101B90001A60E2E7002400F057FA204638BD00BF83
:101BA000E00500200806002038060020000600207E
:101BB0007C06002008070020F4050020F80500201E
:101BC00010B5A8B10446104B1B6843B14FF0500349
:101BD00083F31188BFF36F8FBFF34F8FFEE7FFF7DB
:101BE000DFFE00212046FFF7D1FDFFF76DFF48B96A
:101BF0004FF0E0234FF08052C3F8042DBFF34F8F16
:101C0000BFF36F8F10BD00BFE0050020204B1B68A5
:101C10001BB1204B01221A6070471E4B00221A6034
:101C20001D4B1B68B3FA83F3DBB2C3F11F0303EB55
:101C300083018A0019498A5842B94FF0500383F34F
:101C40001188BFF36F8FBFF34F8FFEE7134803EB8D
:101C500083018A00024451684968516003EB830C98
:101C60004FEA8C0208320244914209D003EB83030D
:101C70009A000A4B13445B68DA68094B1A60704794
:101C8000486862469100054A0A445060EEE700BF8A
:101C9000E0050020F4050020000600207C0600205E
:101CA00008070020842801D00330704700207047C7
:101CB00008B5FFF73BFE002008BD2DE9F04387B0D3
:101CC0000E464469C4B18569B5B14768D0F8008053
:101CD000D0F81090B0F90800FFF7E4FF02950194E6
:101CE000009033464A4641463846FFF7B3FD05901B
:101CF000059807B0BDE8F083446805680769B0F946
:101D00000800FFF7CFFF05AB019300903346BAB24E
:101D100029462046FFF7D8FD0128E9D00020E8E752
:101D200008B500B90120FFF74BFF002008BD0000F7
:101D3000124A12F0070F1ED0D11D21F00701C1F584
:101D4000406313440A460E48026000214160134478
:101D5000083B23F007030B48036059601960991A88
:101D600051601360084B1960084B1960084B4FF025
:101D700000421A6070474FF44063E4E724070020F4
:101D80001C0700201807002010070020140700205F
:101D90000C070020154B1A461B688342FBD3516881
:101DA00002EB010C844509D0416800EB010C63454E
:101DB00009D00360904218D0106070474068014419
:101DC00051601046F0E710B4094C2468A3420AD0D1
:101DD0005B681944416013681B680360904200D03F
:101DE000106010BC70470460F8E770471C070020C3
:101DF0001807002038B50446FFF7D2FD364B1B68A4
:101E0000B3B1364B1B681C424CD1002C4CD004F1B2
:101E1000080214F0070F02D022F007020832002A4D
:101E200051D02F4B1B6893424FD32E490C6804E0CE
:101E3000FFF77EFFE5E721461C466368934202D226
:101E40002368002BF7D1244B1B68A3423FD00D68B9
:101E5000083523680B6063689B1A102B10D9A018F3
:101E600010F0070F08D04FF0500383F31188BFF331
:101E70006F8FBFF34F8FFEE743606260FFF78AFF0B
:101E8000626817490B689B1A0B60174909688B42F7
:101E900001D215490B60114B1B681343636000238B
:101EA000236002E0002500E00025FFF70DFE15F09D
:101EB000070F0ED04FF0500383F31188BFF36F8FDD
:101EC000BFF34F8FFEE70025EFE70025EDE7002584
:101ED000EBE7284638BD00BF180700200C0700209C
:101EE000140700201C0700201007002080B338B51D
:101EF0000446A0F1080550F8043C164A1268134243
:101F000008D14FF0500383F31188BFF36F8FBFF3F5
:101F10004F8FFEE750F8081C41B14FF0500383F398
:101F20001188BFF36F8FBFF34F8FFEE723EA0203E1
:101F300040F8043CFFF734FD54F8041C064A1368CB
:101F40000B4413602846FFF725FFFFF7BDFD38BDA2
:101F5000704700BF0C0700201407002082B0002348
:101F600001930D4B1B68B3F1FF3F08D04FF05003B6
:101F700083F31188BFF36F8FBFF34F8FFEE74FF0EE
:101F8000500383F31188BFF36F8FBFF34F8F019B13
:101F9000002BFCD002B070470C00002006480068FF
:101FA000006880F3088862B661B6BFF34F8FBFF355
:101FB0006F8F00DF00BF000008ED00E04FF080737E
:101FC00040F8043C21F0010140F8081C034B40F8A4
:101FD0000C3C40F8202C4038704700BF5D1F0008C3
:101FE000074B19680868B0E8F00F80F30988BFF361
:101FF0006F8F4FF0000080F311884EF00D0E704788
:10200000080700204FF0500383F31188BFF36F8F50
:10201000BFF34F8F0B4A136801331360012B00D0BD
:1020200070474FF0E023D3F8043D13F0FF0FF7D0D3
:102030004FF0500383F31188BFF36F8FBFF34F8FBF
:10204000FEE700BF0C000020094B1B6843B94FF0AE
:10205000500383F31188BFF36F8FBFF34F8FFEE7F9
:10206000013B034A13600BB983F31188704700BF2B
:102070000C00002000000000000000000000000034
:10208000EFF30980BFF36F8F0D4B1A6820E9F00F53
:1020900010602DE908404FF0500080F31188FFF7E1
:1020A000B5FD4FF0000080F31188BDE808401968C5
:1020B0000868B0E8F00F80F30988BFF36F8F7047AE
:1020C0000807002008B54FF0500383F31188BFF3D1
:1020D0006F8FBFF34F8FFFF76BFC28B14FF0E023FA
:1020E0004FF08052C3F8042D002383F3118808BDFC
:1020F0004FF0E022002313619361054B1B680549F3
:10210000A1FB03139B09013B536107231361704734
:1021100008000020D34D621010B582B02A4B1A7807
:10212000D2B20192FF221A701B78DBB28DF8033015
:102130009DF8033003F05003244A1370244B072208
:102140001A6009E0224A1368013B13609DF80330CE
:102150005B00DBB28DF803309DF8033013F0800F85
:10216000F0D11B4B1B68032B08D04FF0500383F3B7
:102170001188BFF36F8FBFF34F8FFEE71B02144A26
:10218000136003F4E0631360019BDBB20E4A13702B
:102190004FF0E023D3F8202D42F47002C3F8202D35
:1021A000D3F8202D42F07042C3F8202DFFF7A0FF96
:1021B0000024084B1C60FFF7F1FEFFF727FDFFF737
:1021C000CDFE204602B010BD00E400E02813002040
:1021D000241300200C00002003685A6912F4806F59
:1021E00001D1002070476FF480625A6100230363BD
:1021F000202280F83D2080F83E30026C42F004023C
:10220000026480F83C30012070472DE9F041074618
:102210000D4690461E4624E0FEF7F0FA069BC01AD3
:10222000B04200D8EEB900233B63202287F83D205E
:1022300087F83E303A6C42F020023A6487F83C302E
:1022400001201EE03B689C6925EA040C1FFA8CFC07
:10225000BCFA8CFC4FEA5C1CE04511D1B6F1FF3FA3
:10226000DAD1C5F30743012BECD13B685B6925EA62
:10227000030C1FFA8CFCBCFA8CFC4FEA5C1CEBE7ED
:102280000020BDE8F0812DE9F04105460E461746D5
:1022900098463DE01A6842F400721A602B686FF4A9
:1022A00080625A6100232B63202285F83D2085F847
:1022B0003E302A6C42F004022A6485F83C3001204A
:1022C00034E0FEF79BFAA0EB0800B84200D8FFB953
:1022D00000232B63202285F83D2085F83E302A6CB0
:1022E00042F020022A6485F83C3001201EE02B6871
:1022F0009C6926EA0404A4B2003C18BF0124A4B1DE
:102300002B685A6912F4806FC4D1B7F1FF3FD8D15E
:10231000C6F30743012BEAD12B685C6926EA040463
:10232000A4B2003C18BF0124E9E70020BDE8F08119
:10233000F0B583B004460D4616461F46C36A082B07
:102340000DD0012B0BD013F5803F08D0036B122B5F
:102350000AD10268136843F48073136004E02268B2
:10236000136843F4807313600097334600224FF0E4
:1023700001112046FFF749FF80B92369B3F5804F6B
:1023800016D1236805F0FE051D613B463246134910
:102390002046FFF778FFF8B903B0F0BD23681B684B
:1023A00013F4807F02D04FF4007323640320F3E71B
:1023B000EB11226803F0060343F0F00313613B4680
:1023C000324607492046FFF75EFF18B92368EDB291
:1023D0001D61DAE70120DFE70120DDE702000100EF
:1023E000080001002DE9F04184B004460D46164670
:1023F0001F46C26A01680B6843F480630B60082AB9
:102400000DD0012A0BD012F5803F08D0036B112BA1
:102410000AD10268136843F48073136004E02268F1
:10242000136843F4807313600097334600224FF023
:1024300001112046FFF7E9FE98B92369B3F5804FF3
:1024400019D1236845F00105EDB21D613B463246C6
:102450002A492046FFF717FF00284CD104B0BDE8F9
:10246000F08123681B6813F4807F02D04FF400735F
:1024700023640320F2E74FEAE51808F00608236812
:1024800048F0F0021A613B4632461D492046FFF7EC
:10249000FAFE08B10120E1E72368EDB21D613B4679
:1024A000324616492046FFF7EEFE08B10120D5E777
:1024B0000022039223685969039199690391039952
:1024C000196841F480711960009733464FF001118B
:1024D0002046FFF79AFE20B9226848F0F103136105
:1024E000B4E723681B6813F4807F02D04FF40073B5
:1024F00023640320B2E70120B0E700BF020001001F
:102500000800010070B504460D46164623685B6955
:1025100013F0800F1CD12046FFF75EFED0B9B5F155
:10252000FF3FF3D0FEF76AF9801BA84201D8002DC7
:10253000ECD100232363202284F83D2084F83E3030
:10254000226C42F02002226484F83C30012000E03A
:10255000002070BD0120FCE770B504460D4616460C
:1025600023685B6913F0040F1CD12046FFF734FE8B
:10257000D0B9B5F1FF3FF3D0FEF740F9801BA84278
:1025800001D8002DECD100232363202284F83D20C4
:1025900084F83E30226C42F02002226484F83C3001
:1025A000012000E0002070BD0120FCE770B5054669
:1025B0000C4616462B68596911F0400F29D159690C
:1025C00011F0100F15D1FEF719F9801BA04201D8A8
:1025D000002CEFD100232B63202285F83D2085F8C5
:1025E0003E302A6C42F020022A6485F83C300120FB
:1025F00070BD6FF010025A6100232B63202285F812
:102600003D2085F83E302A6C2A6485F83C30012054
:10261000EEE70020ECE70000002800F0CC8070B569
:10262000044690F83D30002B77D0242384F83D30C9
:102630002268136823F0010313602268136843F4CF
:10264000004313602268136823F400431360FEF70D
:1026500001FC62685A4B9A4264D85A4B98428CBF2C
:1026600000230123002B40F0A8805749A1FB003133
:102670008B0C25686A6822F03F0242EA91426A6048
:1026800021680A6A22F03F0266684D4DAE424FD87B
:10269000013313430B622168CA6922F44F4222F0CE
:1026A000FF026568464B9D424CD8431E6D00B3FB4C
:1026B000F5F3013340F6FC70034278D0C3F30B030B
:1026C0001A43CA6121680B6823F0C003E269206ADB
:1026D000024313430B6021688B6823F4034323F008
:1026E000FF032269E068024313438B602168CB68D3
:1026F00023F0FF036269A06902431343CB602268A1
:10270000136843F00103136000202064202384F841
:102710003D30206384F83E0070BD80F83C30FDF70A
:10272000FDFE82E7294B98428CBF0023012399E7E5
:102730004FF4967505FB03F3254DA5FB03539B0949
:102740000133A6E7A668BEB9431E05EB450CB3FBF3
:10275000FCF30133C3F30B03B3FA83F35B0943BB0D
:10276000C6B9431E05EB4505B3FBF5F30133C3F3CF
:102770000B0343F40043A3E7431E05EB850C0CEB6E
:102780008C0CB3FBFCF30133C3F30B03B3FA83F3F9
:102790005B09E4E7431E05EB850505EB8505B3FB07
:1027A000F5F30133C3F30B0343F4404388E70423F9
:1027B00086E7012384E7012070470120ACE700BFD2
:1027C000A08601007F841E0083DE1B43FF083D00BE
:1027D000D34D62102DE9F04385B004460F46914673
:1027E00098460C9EFEF70AF8054694F83D00C0B2E4
:1027F000202804D00227384605B0BDE8F0830095B4
:10280000192301224F492046FFF7FFFC002840F022
:10281000928094F83C30012B00F08F80012384F8E3
:102820003C3023681A6812F0010F03D11A6842F095
:1028300001021A602268136823F4006313602123E5
:1028400084F83D30102384F83E3000232364C4F81C
:102850002490A4F82A80638D23853B4BE3622B46AA
:10286000324639462046FFF763FD0746002866D109
:102870000023039323685A6903929B690393039B84
:1028800011E0236C042B01D00127B4E72268136800
:1028900043F400731360F7E72A4631462046FFF7FA
:1028A0005BFE00282ED1238D002B36D02A463146E0
:1028B0002046FFF727FE0028E3D1626A23681278DA
:1028C0001A61606A431C6362618D89B2013989B201
:1028D0006185238D013B9BB223852268516911F0EC
:1028E000040FD9D0002BD7D043781361636A01332A
:1028F0006362638D9BB2013B9BB26385238D013B79
:102900002385C9E7236C042B01D0012773E72268D4
:10291000136843F400731360F7E72268136843F405
:1029200000731360202384F83D30002384F83E3088
:1029300084F83C305FE702275DE702275BE7012769
:1029400059E700BF020010000000FFFF2DE9F0432F
:1029500089B004460F4691469846109E002307937F
:10296000FDF74CFF054694F83D00C0B2202804D086
:102970000227384609B0BDE8F083009519230122EB
:1029800080492046FFF741FC002840F0708194F810
:102990003C30012B00F06D81012384F83C3023682A
:1029A0001A6812F0010F03D11A6842F001021A608E
:1029B0002268136823F400631360222384F83D30F7
:1029C000102384F83E3000232364C4F82490A4F834
:1029D0002A80638D23856C4BE3622B463246394651
:1029E0002046FFF7FFFC0746002840F04481238D76
:1029F0005BB9039323685A6903929A690392039A15
:102A00001A6842F400721A60EEE0012B0FD0022B1C
:102A100021D02268136843F4806313600023069377
:102A200023685A6906929B690693069BDCE022683C
:102A3000136823F48063136072B600230493236841
:102A40005A6904929A690492049A1A6842F40072CC
:102A50001A6062B6C8E02268136843F4006313602A
:102A600072B60023059323685A6905929A69059204
:102A7000059A1A6822F480621A6062B6B4E02A46A7
:102A800031462046FFF792FD002840F0F68023688B
:102A90001A69636A1A70636A01336362238D013BAA
:102AA0002385638D9BB2013B9BB263859CE00095BF
:102AB0003346002235492046FFF7A7FB002840F0A7
:102AC000E0802268136823F48063136072B6236881
:102AD0001A69636A1A70636A01336362238D013B6A
:102AE0002385638D9BB2013B9BB26385284B1B689A
:102AF000DB08284AA2FB03231B0A03EB8303C3EB77
:102B0000C30307930799013907910799002928D032
:102B100023685A6912F0040FF4D01A6842F4007264
:102B20001A6023681A69636A1A70636A0133636200
:102B3000238D013B2385638D9BB2013B9BB2638553
:102B400062B623681A69636A1A70636A0133636242
:102B5000238D013B2385638D9BB2013B9BB2638533
:102B600042E000232363202284F83D2084F83E3095
:102B7000226C42F02002226462B684F83C300127C5
:102B8000F7E600BF020010000000FFFF0400010094
:102B90000800002089B5F8142A4631462046FFF780
:102BA00005FD00286FD123681A69636A1A70626A8A
:102BB000531C6362238D013B2385638D9BB2013BD4
:102BC0009BB263852368596911F0040F0CD01B690F
:102BD0005370636A01336362238D013B2385638DE8
:102BE0009BB2013B9BB26385218D002936D003291E
:102BF000D2D801293FF443AF02297FF458AF0095A2
:102C00003346002221492046FFF7FFFA002836D13B
:102C100072B62268136843F40073136023681A695C
:102C2000636A1A70636A01336362238D013B2385F3
:102C3000638D9BB2013B9BB2638562B623681A69C0
:102C4000636A1A70636A01336362238D013B2385D3
:102C5000638D9BB2013B9BB26385C5E7202384F85B
:102C60003D30002384F83E3084F83C3081E6022772
:102C70007FE602277DE601277BE6012779E601272B
:102C800077E6012775E6012773E600BF040001001F
:102C90000C480D490D4A002302E0D458C4500433B7
:102CA000C4188C42F9D30A4A0A4C002301E013608D
:102CB0000432A242FBD3FEF7FBFB00F037F8FDF72E
:102CC00089FB704700000020600000205837000892
:102CD0006000002078140020FEE700000EB46FF0C2
:102CE000004100B59CB01DAB029006900791049185
:102CF0000848094953F8042B0591006802A901937B
:102D000000F092F90022029B1A701CB05DF804EBEF
:102D100003B07047100000200802FFFF0346024482
:102D2000934200D1704703F8011BF9E770B5002604
:102D30000C4D0D4C641BA410A64209D100F08CFC74
:102D400000260A4D0A4C641BA410A64205D170BD92
:102D500055F8043B98470136EEE755F8043B984791
:102D60000136F2E7503700085037000850370008A6
:102D700054370008704770470A44914200F1FF330E
:102D800000D1704710B511F8014B914203F8014F83
:102D9000F9D110BD38B50546002940D051F8043CA2
:102DA0000C1F002BB8BFE41800F0D6F81C4A1368BB
:102DB00033B9636014602846BDE8384000F0D2B8EB
:102DC000A34208D9206821188B4201BF19685B68AB
:102DD00009182160EDE71A465B680BB1A342FAD9E6
:102DE00011685018A0420BD120680144501883424A
:102DF0001160E0D118685B68084410605360DAE73E
:102E000002D90C232B60D6E7206821188B4201BF22
:102E100019685B680918216063605460CBE738BDAE
:102E20007014002070B50F4E0C463168054611B97C
:102E300000F0B0FB30602146284600F0ABFB431C9D
:102E400003D14FF0FF34204670BDC41C24F00304AE
:102E5000A042F8D0211A284600F09CFB0130F2D1A4
:102E6000EFE700BF6C1400202DE9F041CD1C25F0E8
:102E7000030508350C2D38BF0C25002D064601DB57
:102E8000A94204D90C2333600020BDE8F081314F02
:102E900000F062F83B681C4644BB29463046FFF709
:102EA000C1FF431C044650D13C682146002941D152
:102EB000002C44D02368304604EB030800F06AFB82
:102EC00080453CD1216830466D1A2946FFF7AAFF9C
:102ED000013034D023682B4423603B68002B36D06C
:102EE0005A68A24229D100225A600EE02268521B81
:102EF0001DD40B2A16D96119A342256018BF596049
:102F0000636808BF396062514B60304600F02AF8B0
:102F100004F10B00231D20F00700C21AB5D01B1AC4
:102F2000A350B2E7A3426268DED13A60EDE72346E0
:102F30006468B1E70C464968B8E71346CEE70C234E
:102F40003046336000F00EF89EE70560DDE75B6019
:102F5000FFDE00BF701400200148FFF70BBF00BF69
:102F6000681400200148FFF706BF00BF6814002066
:102F70002DE9F0471F468E688246BE420C469046B9
:102F80000B682DD8B1F90C2012F4906F26D065692A
:102F9000096905EB4505A3EB010905EBD5757B1C1C
:102FA0004B446D109D4238BF1D46530527D5294619
:102FB000FFF75AFF064660B34A462169FFF7DCFE79
:102FC000A38923F4906343F08003A38126614E44D8
:102FD00026603E466561A5EB0905A560BE4200D9A5
:102FE0003E4632464146206800F0BAFA0020A36807
:102FF0009B1BA360236833442360BDE8F0872A4607
:1030000000F0E6FA06460028E0D150462169FFF7B5
:10301000C1FE0C23CAF80030A3894FF0FF3043F003
:103020004003A381E9E700002DE9F04F98468B8922
:1030300007461B060D4614469DB010D50B6973B9A3
:103040004021FFF711FF2860286130B90C233B6055
:103050004FF0FF301DB0BDE8F08F40236B610023BF
:10306000099320238DF8293030234FF00109CDF842
:103070000C80DFF898818DF82A3023469A4613F8A1
:10308000012B0AB1252AF9D1BAEB040B0BD05B4610
:10309000224629463846FFF76BFF013000F0A78033
:1030A000099A5A4409929AF80030002B00F09F8048
:1030B00000234FF0FF32CDE905230AF1010A049302
:1030C00007938DF853301A935446052214F8011BC8
:1030D0004E4800F06FFA049AD8B9D00644BF2023B6
:1030E0008DF85330110744BF2B238DF853309AF8D5
:1030F00000302A2B15D0544600204FF00A0C079AB6
:10310000214611F8013B303B092B4BD9B0B1079256
:1031100014E0A0EB080309FA03F31343A246049357
:10312000D2E7039B191D1B680391002BBBBF5B42B9
:1031300042F0020207930793B8BF049223782E2B24
:103140000AD163782A2B32D1039B02341A1D1B68E3
:10315000039243EAE3730593DFF8B4A003225046D9
:10316000217800F027FA38B14022049BA0EB0A0036
:10317000824013430134049314F8011B06222548AE
:103180008DF8281000F016FA002836D0224B1BBB11
:10319000039B073323F0070308330393099B33444E
:1031A00009936AE70C4601200CFB0232A8E70023D2
:1031B0004FF00A0C194601340593204610F8012BF4
:1031C000303A092A03D9002BC6D00591C4E704463A
:1031D00001230CFB0121F0E703AB00932A4638469C
:1031E0000E4B04A9AFF30080421C0646D6D1AB8932
:1031F0005B063FF52DAF09982CE703AB00932A46F9
:103200003846064B04A900F07DF8EDE71D370008AD
:10321000233700082737000800000000712F00083E
:103220002DE9F047164698468A680B69074693428F
:10323000B8BF1346336091F843200C46DDF8209068
:103240000AB1013333602368990642BF3368023301
:103250003360256815F0060506D104F1190AE36804
:1032600032689B1AAB422BDC94F843302268003B57
:1032700018BF0123920630D44146384604F1430278
:10328000C847013023D02368226903F00603042BCA
:1032900014BF002533684FF0000608BFE56804F14D
:1032A0001A0408BFED1A54F8123C08BF25EAE57568
:1032B0009342C4BF9B1AED18B5421AD1002008E012
:1032C0000123524641463846C847013003D14FF0EA
:1032D000FF30BDE8F0870135C1E73020E11881F803
:1032E00043005A1C94F845102244023382F84310DC
:1032F000C2E70123224641463846C8470130E6D09E
:103300000136D9E72DE9FF470F7E9146782F804699
:103310000C469A460C9D01F1430207D8622F0AD849
:10332000002F00F0E080582F00F0BB8004F142062F
:1033300084F842703AE0A7F16303152BF6D801A197
:1033400051F823F09D330008B13300082D330008F5
:103350002D3300082D3300082D330008B133000849
:103360002D3300082D3300082D3300082D330008BD
:10337000CD34000841340008833400082D330008A0
:103380002D330008EF3400082D33000841340008C5
:103390002D3300082D3300088B3400082B6804F10E
:1033A00042061A1D1B682A6084F842300123ABE0F4
:1033B000236829681F0601F10400286001D50D6803
:1033C00003E05E06FBD5B1F90050002D61687ADAA2
:1033D0002D20002984F84300A1602DDA0A235E48DD
:1033E0006D421646B5FBF3F103FB1157C75D06F8B6
:1033F000017D2F46BB420D46F4D9082B0BD1236823
:10340000DF0708D5236961689942DEBF302306F8DB
:10341000013C06F1FF36921B22614B462146404695
:10342000CDF800A003AAFFF7FBFE013071D14FF0E9
:10343000FF3004B0BDE8F08723F004032360CDE73C
:103440002B682068191D2960050601D51D6802E05A
:103450004106FBD51D886F2F14BF0A2308233E4861
:10346000002184F843106668002EA660B9DB21684D
:1034700021F004012160002DB3D1002EB1D11646F8
:10348000BBE7236843F0200323607827334884F8A0
:103490004570296823680E1D2E601E0603D50D6831
:1034A00004E02D48F3E75D06F9D50D88D90744BF40
:1034B00043F0200323600DB11023D1E7236823F0EC
:1034C00020032360F8E70A232348CCE72B6826680B
:1034D000181D6169286035061B6801D5196002E076
:1034E0007006FBD5198000231646236195E72B68EB
:1034F00000211A1D2A601E686268304600F05AF8E2
:1035000008B1801B606063682361002384F8433046
:1035100083E73246494640462369D047013086D08A
:1035200023689B0714D4E068039B9842B8BF1846F1
:103530007FE70123324649464046D04701303FF4F9
:1035400076AF0135E36803995B1AAB42F1DCEAE739
:10355000002504F11906F5E72E3700083F3700086B
:10356000884210B501EB020402D98442234607D8F1
:10357000431EA14208D011F8012B03F8012FF8E7F0
:10358000014602448A4200D110BD13F8014D02F8F1
:10359000014DF7E738B50023054D044608462B607A
:1035A00000F04CF8431C02D12B6803B1236038BDF6
:1035B00064140020034610B5C9B202449342184671
:1035C00001D1002003E0047801338C42F6D110BD14
:1035D0002DE9F041804615460C4621B91146BDE85B
:1035E000F041FFF741BC2AB9FFF7D4FB0024204685
:1035F000BDE8F08100F01AF88542064602D8B5EB26
:10360000500FF4D829464046FFF72EFC0746002805
:10361000ECD0B5422A46214628BF3246FFF7ACFB24
:1036200021464046FFF7B6FB3C46E0E751F8043C34
:10363000181F002BBCBF0B58C0187047044A05491F
:103640001368002B08BF0B461844106018467047DB
:103650007414002078140020F8B500BFF8BC08BC32
:103660009E467047F8B500BFF8BC08BC9E46704740
:10367000E03600080502000800000000000000001D
:10368000800000000000000000000000D8360008A4
:1036900045020008FFFF000000000000800000005D
:1036A000E400002090000020636F756E7465723D29
:1036B00000000000256C75004672656552544F533A
:1036C0002020202020202020456E636F646572201A
:1036D00064656D6F000000006C63645461736B007F
:1036E00064656661756C745461736B000203040554
:1036F000060708090A0B0C0D0E0F10100000000041
:1037000000000000010203040000000000000000AF
:10371000010203040607080949444C4500232D30E3
:103720002B2000686C4C00656667454647003031C9
:103730003233343536373839414243444546003018
:103740003132333435363738396162636465660047
:043750003501000837
:043754001101000857
:1037580001010000100000000024F400AAAAAAAA8F
:1037680014000020000000002C13002094130020F7
:10377800FC13002000000000000000000000000012
:103788000000000000000000000000000000000031
:103798000000000000000000000000000000000021
:1037A8000000000000000000000000000000000011
:0400000508002C9132
:00000001FF
